{
  "contractName": "BeSafe",
  "abi": [
    {
      "inputs": [],
      "payable": false,
      "stateMutability": "nonpayable",
      "type": "constructor"
    },
    {
      "constant": true,
      "inputs": [
        {
          "internalType": "string",
          "name": "",
          "type": "string"
        }
      ],
      "name": "files",
      "outputs": [
        {
          "internalType": "string",
          "name": "fileId",
          "type": "string"
        },
        {
          "internalType": "string",
          "name": "fileData",
          "type": "string"
        }
      ],
      "payable": false,
      "stateMutability": "view",
      "type": "function"
    },
    {
      "constant": false,
      "inputs": [
        {
          "internalType": "string",
          "name": "_fileId",
          "type": "string"
        },
        {
          "internalType": "string",
          "name": "_fileData",
          "type": "string"
        }
      ],
      "name": "addFile",
      "outputs": [],
      "payable": false,
      "stateMutability": "nonpayable",
      "type": "function"
    }
  ],
  "bytecode": "0x608060405234801561001057600080fd5b5061008b6040518060400160405280600681526020017f31323132313200000000000000000000000000000000000000000000000000008152506040518060400160405280600d81526020017f6569737361206b692066696c650000000000000000000000000000000000000081525061010a60201b60201c565b6101056040518060400160405280600581526020017f35363436350000000000000000000000000000000000000000000000000000008152506040518060400160405280600e81526020017f72697a77616e206b692066696c6500000000000000000000000000000000000081525061010a60201b60201c565b61026e565b6040518060400160405280838152602001828152506000836040518082805190602001908083835b602083106101555780518252602082019150602081019050602083039250610132565b6001836020036101000a038019825116818451168082178552505050505050905001915050908152602001604051809103902060008201518160000190805190602001906101a49291906101c9565b5060208201518160010190805190602001906101c19291906101c9565b509050505050565b828054600181600116156101000203166002900490600052602060002090601f016020900481019282601f1061020a57805160ff1916838001178555610238565b82800160010185558215610238579182015b8281111561023757825182559160200191906001019061021c565b5b5090506102459190610249565b5090565b61026b91905b8082111561026757600081600090555060010161024f565b5090565b90565b6106308061027d6000396000f3fe608060405234801561001057600080fd5b50600436106100365760003560e01c8063248bfc3b1461003b578063e77557611461018d575b600080fd5b61018b6004803603604081101561005157600080fd5b810190808035906020019064010000000081111561006e57600080fd5b82018360208201111561008057600080fd5b803590602001918460018302840111640100000000831117156100a257600080fd5b91908080601f016020809104026020016040519081016040528093929190818152602001838380828437600081840152601f19601f8201169050808301925050505050505091929192908035906020019064010000000081111561010557600080fd5b82018360208201111561011757600080fd5b8035906020019184600183028401116401000000008311171561013957600080fd5b91908080601f016020809104026020016040519081016040528093929190818152602001838380828437600081840152601f19601f82011690508083019250505050505050919291929050505061032d565b005b610246600480360360208110156101a357600080fd5b81019080803590602001906401000000008111156101c057600080fd5b8201836020820111156101d257600080fd5b803590602001918460018302840111640100000000831117156101f457600080fd5b91908080601f016020809104026020016040519081016040528093929190818152602001838380828437600081840152601f19601f8201169050808301925050505050505091929192905050506103ec565b604051808060200180602001838103835285818151815260200191508051906020019080838360005b8381101561028a57808201518184015260208101905061026f565b50505050905090810190601f1680156102b75780820380516001836020036101000a031916815260200191505b50838103825284818151815260200191508051906020019080838360005b838110156102f05780820151818401526020810190506102d5565b50505050905090810190601f16801561031d5780820380516001836020036101000a031916815260200191505b5094505050505060405180910390f35b6040518060400160405280838152602001828152506000836040518082805190602001908083835b602083106103785780518252602082019150602081019050602083039250610355565b6001836020036101000a038019825116818451168082178552505050505050905001915050908152602001604051809103902060008201518160000190805190602001906103c7929190610556565b5060208201518160010190805190602001906103e4929190610556565b509050505050565b600081805160208101820180518482526020830160208501208183528095505050505050600091509050806000018054600181600116156101000203166002900480601f0160208091040260200160405190810160405280929190818152602001828054600181600116156101000203166002900480156104ae5780601f10610483576101008083540402835291602001916104ae565b820191906000526020600020905b81548152906001019060200180831161049157829003601f168201915b505050505090806001018054600181600116156101000203166002900480601f01602080910402602001604051908101604052809291908181526020018280546001816001161561010002031660029004801561054c5780601f106105215761010080835404028352916020019161054c565b820191906000526020600020905b81548152906001019060200180831161052f57829003601f168201915b5050505050905082565b828054600181600116156101000203166002900490600052602060002090601f016020900481019282601f1061059757805160ff19168380011785556105c5565b828001600101855582156105c5579182015b828111156105c45782518255916020019190600101906105a9565b5b5090506105d291906105d6565b5090565b6105f891905b808211156105f45760008160009055506001016105dc565b5090565b9056fea265627a7a72315820845d2cc37e045e57de4adafe5d14806ac894254f57c6046010ef0c026058665c64736f6c63430005100032",
  "source": "// SPDX-License-Identifier: UNKNOWN \r\npragma solidity  0.5.16;\r\n\r\ncontract BeSafe {\r\n    \r\n    struct File{\r\n        string fileId;\r\n        string fileData;\r\n    }\r\n\r\n    mapping(string => File) public files;\r\n\r\n    constructor() public {\r\n        addFile(\"121212\", \"eissa ki file\");\r\n        addFile(\"56465\", \"rizwan ki file\");\r\n    }\r\n\r\n    function addFile(string memory _fileId, string memory _fileData) public{\r\n        files[_fileId] = File(_fileId, _fileData);\r\n    }\r\n}\r\n",
  "sourcePath": "C:\\Users\\eissa\\OneDrive\\Documents\\solodity\\besafe_v1\\contracts\\BeSafe.sol",
  "compiler": {
    "name": "solc",
    "version": "0.5.16+commit.9c3226ce.Emscripten.clang"
  },
  "schemaVersion": "3.4.14",
  "updatedAt": "2023-06-04T07:22:37.501Z",
  "networkType": "ethereum",
  "devdoc": {
    "methods": {}
  },
  "userdoc": {
    "methods": {}
  }
}